:100000000C943E000C945B000C945B000C945B0021
:100010000C945B000C945B000C945B000C945B00F4
:100020000C945B000C945B000C945B000C945B00E4
:100030000C945B000C945B000C945B000C945B00D4
:100040000C945B000C945B000C945B000C945B00C4
:100050000C945B000C945B000C945B000C945B00B4
:100060000C945B000C945B000C945B000C945B00A4
:100070000C945B000C945B000C945B0011241FBE7D
:10008000CFEFD0E1DEBFCDBF12E0A0E0B1E0E6E20D
:10009000F4E002C005900D92A03FB107D9F726E029
:1000A000A0EFB2E001C01D92A43FB207E1F70E94A9
:1000B00092010C9411020C94000080E094E0E4EFB3
:1000C000F2E0DF019C011D9221503040E1F70895DC
:1000D0005D985E982FE784E89EE121508040904033
:1000E000E1F700C000005E9A08955C9A27E030E0D6
:1000F00090E05C98AC01022E02C0559547950A9499
:10010000E2F740FD599A40FF59985C9A2150310915
:1001100080F708955F980C9475005F9A0C947500B1
:10012000FF920F931F93CF93DF9304EF12E087E0CA
:10013000F82E8F2D806B0E948A0080E00E948A003A
:1001400080E10E948A0080EE0E948A00C0E0D0E038
:10015000F801EC0FFD1F80810E948D002196C038B0
:10016000D105B1F7FA9400581F4F8FEFF812E1CF85
:10017000DF91CF911F910F91FF9008950C94900003
:10018000559A569A579A549A519A5D9A5E9A5F9ADE
:100190005C9A599A0E94680082EA0E948A0080EA6A
:1001A0000E948A0080EC0E948A0080E40E948A00FB
:1001B0008CE20E948A002FE38DE093E02150804082
:1001C0009040E1F700C000008EE20E948A002FE319
:1001D0008DE093E0215080409040E1F700C00000A6
:1001E0008FE20E948A008FE493EC0197F1F700C040
:1001F000000086E20E948A008FEA0E948A0084EA58
:100200000C948A00CF93C82F81E80E948A008C2F1B
:100210008F73CF910C948A006093F0027093F10277
:100220008093F2029093F302089587FD1AC0603420
:10023000C0F4962F969596959695E82FF0E0EC50A1
:10024000FD4F80E8989FE00DF11D112470E060954E
:1002500070956770772781E001C0880F6A95EAF78B
:1002600080830895883060F467FD0AC090E8899F14
:10027000F0011124EC50FD4FE60FF11D8FEF80834C
:1002800008957091F00250E040525109749FF001BE
:10029000759FF00D11246695669566954091F20262
:1002A0005091F30220E030E04E0F5F1F90E0E0E855
:1002B0006E9F800D911D11248C509D4F271758F46F
:1002C000FA01E20FF31F6081FC01E20FF31F60836C
:1002D0002F5F3F4FF3CF0895FF920F931F93CF935C
:1002E000DF93F62EEA01082F10E0212F30E0FE0107
:1002F00001900020E9F73197EC1BFD0B2E173F070B
:1003000058F4FE01E20FF31F40816F2D802F0E94F1
:1003100041011F5F0B5FE9CFDF91CF911F910F91DB
:10032000FF9008950E94C0000E945D000E9490000E
:1003300084E10E9402018091000190910101A0914D
:100340000201B09103018093F0029093F102A09317
:10035000F202B093F3024FED52E064E186E20E94B4
:100360006C014BEE52E067E383E00E946C014BEEC0
:1003700052E067E38AE20E946C014BEE52E067E3D1
:1003800082E50E946C014BEE52E067E388E70E9431
:100390006C010E9490002798269825982498239A0B
:1003A0008FEF85B92B981F9903C04DEE52E002C024
:1003B0004BEE52E067E383E00E946C010E949000E4
:1003C0001E9903C04DEE52E002C04BEE52E067E3CF
:1003D0008AE20E946C010E9490001D9903C04DEEBC
:1003E00052E002C04BEE52E067E382E50E946C01EE
:1003F0000E9490001C9903C04DEE52E002C04BEEEB
:1004000052E067E388E70E946C010E9490001F9B06
:1004100006C01E9B04C01D9B02C01C99C3CF2B9A13
:06042000C2CFF894FFCFEB
:100426000507040100000000000000FA000000C0FB
:1004360000C000287C287C280064D64C0032340892
:1004460016264CB2B24C0A0000C00000007C8200A6
:10045600000000827C00002070200010107C10102C
:100466000002040000101010101000060600000222
:100476000C106080007C827C000080FE000000463C
:100486009A62000044926C00003C44FE0400F49220
:100496008C00007C925C0000809EE000006C926CF8
:1004A600000074927C000066660000006264000032
:1004B6001028440000282828282800004428100076
:1004C600409A60003C52AA7A04007E887E0000FEB4
:1004D600926C00007C82440000FE827C0000FE924A
:1004E600820000FE9080007C82925C0000FE10FE7E
:1004F600000000FE0000000402FC0000FE10EE00FA
:1005060000FE020200FE700E70FEFE700CFE007C05
:1005160082827C0000FE9060007C82867A0000FE6B
:10052600906E000064924C000080FE800000FC0289
:10053600FC0000F806F800FC02FE02FC00EE10EEDD
:100546000000E01EE000008E92E20000FE82000045
:100556008060100C02000082FE00204080402002D5
:10056600020202020080400000002C523E0000FE03
:10057600221C00003C422400001C22FE00003C52CB
:10058600340000207EA00000344A3C0000FE201EFD
:10059600000000BE0000000402BC0000FE08360099
:1005A6000000FE00007E403E403E007E403E0000D1
:1005B6003C423C00007E4838000038487E00007E01
:1005C6002040000024522C00207C220400007C02E3
:1005D6007E00007C027C007C027C027C0076087631
:1005E600000060127C00004E5262000010FE820085
:1005F6000000FE00000082FE1000102018081042C5
:100606007574746F6E205465737400300031000089
:00000001FF
