:100000000C943E000C9450000C9450000C94500042
:100010000C9450000C9450000C9450000C94500020
:100020000C9450000C9450000C9450000C94500010
:100030000C9450000C9450000C9450000C94500000
:100040000C9450000C9450000C9450000C945000F0
:100050000C9450000C9450000C9450000C945000E0
:100060000C9450000C9450000C9450000C945000D0
:100070000C9450000C9450000C94500011241FBE9E
:10008000CFEFD0E1DEBFCDBF25E0A0E0B1E001C001
:100090001D92A030B207E1F70E942F010C946F016E
:1000A0000C94000080E094E0E0E0F1E0DF019C01CE
:1000B0001D9221503040E1F708955D985E982FE73A
:1000C00084E89EE1215080409040E1F700C00000AC
:1000D0005E9A08955C9A27E030E090E05C98AC016D
:1000E000022E02C0559547950A94E2F740FD599AB1
:1000F00040FF59985C9A2150310980F708955F9824
:100100000C946A005F9A0C946A00EF92FF920F932E
:100110001F93CF93DF93EC0187E0F82E8F2D806B38
:100120000E947F0080E00E947F0080E10E947F00AB
:1001300080EE0E947F008E01E12CF80181918F01F9
:100140000E948200E394F0E8EF12F7CFFA94C058CF
:10015000DF4F8FEFF812E2CFDF91CF911F910F9118
:10016000FF90EF90089580E091E00C948500559AFF
:10017000569A579A549A519A5D9A5E9A5F9A5C9AE7
:10018000599A0E945D0082EA0E947F0080EA0E94E4
:100190007F0080EC0E947F0080E40E947F008CE260
:1001A0000E947F002FE38DE093E02150804090403B
:1001B000E1F700C000008EE20E947F002FE38DE097
:1001C00093E0215080409040E1F700C000008FE2B2
:1001D0000E947F008FE493EC0197F1F700C00000CC
:1001E00086E20E947F008FEA0E947F0084EA0C94DE
:1001F0007F00CF93C82F81E80E947F008C2F8F73E0
:10020000CF910C947F0087FD1AC06034C0F4962F04
:10021000969596959695E82FF0E0E050FF4F80E890
:10022000989FE00DF11D112470E060957095677046
:10023000772781E001C0880F6A95EAF780830895E7
:10024000883060F467FD0AC090E8899FF0011124AE
:10025000E050FF4FE60FF11D8FEF808308950E945D
:10026000B7000E9452000E94B30089E10E94F90089
:100270008CE28093000182E580930101809302016A
:100280009EE3909303013EEF3093080192E2909336
:10029000090190930A014CE140930B012CE3209358
:1002A000100152E4509311015093120154E2509303
:1002B0001301409318019093190190931A01309300
:1002C0001B0120932001809321018093220184E36C
:1002D000809323010E94B30080E090E00895F89499
:0202E000FFCF4E
:00000001FF
